S01A00007261696C5F736F635F73696D706C655F7472782E733337E8
S21400000000080020391300003513000035130000E7
S214000010F1540000351300003513000035130000BE
S21400002035130000351300003513000035130000AB
S214000030351300003513000035130000351300009B
S214000040351300003513000035130000351300008B
S214000050351300003513000035130000351300007B
S214000060351300003513000035130000351300006B
S214000070351300003513000035130000351300005B
S214000080351300003513000035130000351300004B
S214000090351300003513000035130000351300003B
S2140000A0351300007D1A0000551A000035130000B5
S2140000B0351300006DAD0000351300004DB700008D
S2140000C005B7000001B700003DAF000049B70000CB
S2140000D009B7000021B700000DB70000ADB700005B
S2140000E0E59C0000499D00008DB700003513000018
S2140000F035130000351300003513000035130000DB
S21400010035130000351300003513000035130000CA
S21400011035130000351300003513000035130000BA
S21400012035130000351300003513000035130000AA
S2140001303513000035130000990C0000890C0000F0
S21400014010B5054C237833B9044B13B1044800E0CE
S21400015000BF0123237010BD14090020000000001A
S214000160882C010008B5034B1BB10349034800E087
S21400017000BF08BD0000000018090020882C010000
S214000180A3F5803A704700BF174B002B08BF134BF0
S2140001909D46FFF7F5FF00218B460F461348144A8D
S2140001A0121A0CF0AEFA0E4B002B00D098470D4BEF
S2140001B0002B00D098470020002104000D000D48B9
S2140001C0002802D00C4800E000BF0CF04FFA2000D8
S2140001D0290000F04FFC0CF035FA00BF00000800C4
S2140001E000000000000000000008002014090020A5
S2140001F028160020000000000000000008B50320BC
S21400020000F032FF40B9032000F02EFF70B9032043
S21400021000F02AFFB8B908BD00F046FF00F045FF21
S2140002201149124B186804F0DDFDECE700F03CFFC6
S21400023000F03BFF0E4B9A6CDB6C0E490B480068D7
S21400024004F0D0FDE3E700F02FFF00F02EFF074B91
S2140002501868094B1B7823B1084A094904F0C2FD07
S214000260D9E7084AF9E700BF60D30000D80E00209F
S2140002700080E00F68D30000060800205CD3000072
S21400028080D3000058D3000008B5094B01221A702D
S214000290032000F0E9FE00B908BD00F005FF00F0FD
S2140002A004FF0449044B186804F09CFDF4E700BF03
S2140002B0840B002094D30000D80E002010B583686D
S2140002C0C26853F822301B7843B90C4B00221A70D0
S2140002D00B4C032000F0C8FE28B910BD074B0122C6
S2140002E01A70084CF5E700F0DFFE00F0DEFE22464E
S2140002F00549064B186804F075FDEEE70608002071
S21400030058D300005CD30000ACD30000D80E002009
S21400031010B50446032000F0A7FE00B910BD00F09B
S214000320C3FE00F0C2FE22460249034B186804F0E2
S21400033059FDF3E790D30000D80E002038B5002012
S21400034000F068FE044600F051FB114801F085FA03
S214000350104801F082FA00221146204606F01EFAE6
S21400036020B90D48FFF7D4FF204638BD05460220C9
S21400037000F07AFE0028F4D000F096FE00F095FE1D
S2140003802A460649064B186804F02CFDE9E700BF2C
S214000390D4DE0000ECDE0000F4D30000C4D300007E
S2140003A0D80E0020074A1168074B19608378C17879
S2140003B003EB0123017903EB0143417903EB01636E
S2140003C0136070473C0900207009002070B5054690
S2140003D00C4616468A8889680CF06CF9E16831B1DB
S2140003E06288A088121A92B228440CF063F935602D
S2140003F06088B0F5807F28BF4FF4807070BD000025
S21400040070B582B0012306F083FD062801D102B044
S21400041070BD0446114E124D3146286804F0E2FCC9
S21400042000F042FE00F041FE0E4B009340F24F23D8
S2140004300D4A0E49286804F0D5FC0D4A0D49286877
S21400044004F0D0FC062322460B49286804F0CAFCB8
S2140004503146286804F0C6FCFEE700BF54D500000D
S214000460D80E0020E4D6000000D4000014D400000B
S21400047020D400004CD4000064D4000070B52DEDEC
S214000480048B88B005468D4B1B78D3B18B4B00226E
S2140004901A708B4B1B7813B9894B01221A70894B43
S2140004A000221A70874B1B78DBB2062B00F20E82F6
S2140004B0DFE813F0400090009700AC00F301C100A5
S2140004C08C00814B1B7853B17F4B00221A707F4AF9
S2140004D01368013313607B4B01221A70E2E77C4BF2
S2140004E01B7853B17A4B00221A707A4A536801334C
S2140004F05360744B02221A70D4E7774B1B7853B1C3
S214000500754B00221A70714A5368013353606D4B65
S21400051003221A70C6E7714B1B78002BC2D06F4BB4
S21400052000221A706E4A536801335360654B0422EA
S2140005301A70B7E703AA0221284606F009FD04460A
S2140005400BE0684B1B784BBB674801F08BF903AA9E
S2140005500221284606F0FCFC0446002C33D000237B
S214000560029302AA03A96148FFF730FF0646214618
S214000570284606F0F3FC04460028E2D0022000F0ED
S21400058073FD0028DDD000F08FFD00F08EFD2246C2
S2140005905749584B186804F025FCD2E731460298B4
S2140005A0FFF700FF544B1B68544A12689B1A012B36
S2140005B004D9484A936801339360C5E7454A1368EF
S2140005C001331360C0E73F4B05221A7008B0BDEC3C
S2140005D0048B70BD4A4801F045F93A4B05221A7063
S2140005E0F4E7012000F040FD18B9364B05221A70DA
S2140005F0ECE700F059FD00F058FD424BD3E900232C
S21400060041493C48006804F0EDFBEEE7012000F0AD
S2140006102BFD18B92B4B05221A70D7E700F044FDC6
S21400062000F043FD374BD3E90023384931480068D2
S21400063004F0D8FBEEE7364B1B7893B9344B1B78A7
S214000640002B73D1324B1B78002BBFD106F0A8FCD1
S214000650304B0344304A1360304B1A68304B1A60F4
S214000660B4E72E4A1368013313602E498B701A0ABA
S214000670CA701A0C0A711B0E4B7106222846FFF729
S214000680BFFE00231A461946284606F079F80446A7
S21400069018B90C4B06221A70D0E7022000F0E4FCD2
S2140006A00028F6D000F000FD00F0FFFC22461E49B0
S2140006B0104B186804F096FBEBE700BF6C090020AF
S2140006C0780A0020070800206D0900205009002045
S2140006D07409002040090020800A00205C090020E0
S2140006E03009002006080020D4DE0000780900202B
S2140006F0B0D40000D80E00203C090020700900206D
S214000700ECDE000060090020D4D40000FCD4000019
S214000710840B0020002D31017C0A00204C090020AB
S214000720680900200008002024D5000006F038FCE8
S2140007306F4B1B68984285D36E4B1A686E4B1B68CE
S214000740D31A07EE903AF8EE677AB3EE047A87EE9D
S214000750878ADFED6A7AC7EE888A69494B688968B6
S2140007600B4407EE903AF8EE677A9FED667A67EEEE
S214000770877A07EE102AB8EE477A87EE879A032024
S21400078000F072FC40BB032000F06EFC00282DD168
S214000790032000F069FC002832D1032000F064FC3E
S2140007A0002839D1032000F05FFC002840D1032048
S2140007B000F05AFC002847D1032000F055FC002822
S2140007C052D14C4B1A684C4B1A6006F0E9FB4E4B64
S2140007D00344474A1360F9E600F066FC00F065FC47
S2140007E04A494B4B186804F0FDFACCE700F05CFC75
S2140007F000F05BFC4749464B186804F0F3FAC7E77D
S21400080000F052FC00F051FC3D4B1A684249404B48
S214000810186804F0E7FAC0E700F046FC00F045FC74
S214000820374B5A683D493A4B186804F0DBFAB9E78B
S21400083000F03AFC00F039FC314B9A683849344BEA
S214000840186804F0CFFAB2E700F02EFC00F02DFC9A
S21400085019EE100A0BF02CFA02460B4631492C48CA
S214000860006804F0BFFAA7E700F01EFC00F01DFCCD
S21400087018EE100A0BF01CFA04460D46244B1E68B0
S21400088018EE900A0BF014FACDE9000122462B462A
S2140008902549304604F0A6FA93E7244B1B78DCB2D1
S2140008A0012000F0E1FB18B9214B05221A708DE6F5
S2140008B000F0FAFB00F0F9FB00941E4BD3E900238E
S2140008C01D491348006804F08DFAEDE7012000F09A
S2140008D0CBFB00283FF47AAE00F0E6FB00F0E5FB29
S2140008E0134B1A7815490A4B186804F07BFA6DE624
S2140008F07C0A00204C090020680900200044C547F7
S214000900500900200000C842002D310140D50000EB
S214000910D80E00204CD5000058D5000068D5000041
S21400092078D5000088D500009CD500005D09002021
S2140009300708002060090020D8D5000024D6000053
S21400094070B5064614461D46194BC3E90045194BBB
S214000950134205D002F0080393B9174B01221A7010
S21400096004F0AA4305F02202134305D004F0807376
S21400097063B1124B01221A7015F4007F0AD170BDC4
S21400098006F0EAFA0E4B01221A70E9E70D4B012237
S2140009901A70F1E700221146304606F071FA0A4B4B
S2140009A018701B78002BEAD0084B01221A70E6E775
S2140009B060090020088D0100740900206D090020E0
S2140009C06C090020800A00205D0900205C090020D8
S2140009D008B500F002FE012800D008BD024A1378D0
S2140009E083F001031370F8E7840B002070B582B023
S2140009F04FF480730022164906F08CFAB0F5807F1B
S214000A0001D102B070BD0446124E134D314628681F
S214000A1004F0E8F900F048FB00F047FB0F4B0093AA
S214000A2040F281130E4A0F49286804F0DBF90E4A9B
S214000A300E49286804F0D6F94FF4807322460C4914
S214000A40286804F0CFF93146286804F0CBF9FEE7B1
S214000A50840A002054D50000D80E0020D4D600000A
S214000A6000D4000014D4000050D600004CD400007F
S214000A707CD6000008B504F03FFDFFF75FFC044B92
S214000A80186004F045FD024B1868FFF7F7FCF8E71E
S214000A90880B0020704708B500F031FB08BD000049
S214000AA030B585B0094C2268094B1A60094D0A4BCF
S214000AB02B600A4B019304F039F902902B680393DC
S214000AC001A9206802F02AFF05B030BD20080020EA
S214000AD0041100200011002014080020ECDB0000A8
S214000AE038B504F023F90446064D2B68D3F8B00257
S214000AF004F010F9286802F025FF204604F00AF9F1
S214000B0038BD00BF2008002008B50321802001F072
S214000B1089FD03214FF4806001F084FD03214FF42A
S214000B20906001F07FFD08214FF4C06001F07AFD6F
S214000B3008214FF4F06001F075FD08213E2001F019
S214000B4071FD08212D2001F06DFD002008BD00007C
S214000B5008B5154B1B68C3F30743012B10D004F0F0
S214000B60BDF800F0DFFA04F033F804F057F804F0AC
S214000B709BF8FFF7C9FF04F03DF800F0C9FA08BD7E
S214000B800A4B5A6E03F580534FF48021596603F5DD
S214000B9010430421196212F4802FE0D1A3F500431C
S214000BA04FF480225A66DAE70080E00F008000509B
S214000BB008B500F0C7FD00F0F7FE00F03DFA00F0C3
S214000BC047FA00F019FB08BD08B502F0C3FC02F0B6
S214000BD0AFFD02F0CFFD00F02BFA08BD08B500F01F
S214000BE065FA08BD704708B5FFF77AFF08BD70477D
S214000BF0704708B500F044F808BD08B500F07BFA69
S214000C0004F07AFA04F0FAFBFFF7F3FFFFF748FF69
S214000C1008BD000010B59AB0164C0DF1480CA6465B
S214000C20BEE80F00ACE80F009EE80F008CE80F004F
S214000C300DF11C0C04F1200EBEE80F00ACE80F000E
S214000C40BEE80F00ACE80F009EE807008CE807003F
S214000C500DF10C0C04F14C030FCB8CE80F00064B87
S214000C60009307AB12AA6146044804F01FF91AB0B5
S214000C7010BD00BF04DC0000480E0020C00E00209F
S214000C8008B5FFF7C7FF08BD08B5024B186804F0A3
S214000C90F3F908BDC00E002008B5024B186804F032
S214000CA0EBF908BDC00E0020F0B583B005460E4631
S214000CB0104F114C3946206804F094F800F0F4F90F
S214000CC000F0F3F90D4B009339230D4A0D492068C7
S214000CD004F088F80C4A0D49206804F083F833467F
S214000CE02A460B49206804F07DF83946206804F04F
S214000CF079F8FEE754D50000D80E0020ACDC0000E2
S214000D0060DC000014D4000084DC00004CD400003A
S214000D1088DC000008B5FFF7C7FF08BD704708B5B8
S214000D20FFF7FCFF08BD704738B504460D4602F0D5
S214000D301BFC29462046FFF7F6FF38BD08B5FFF72F
S214000D40FFFD08BD0000000070B58AB000230693C2
S214000D500793089309939A4B06939A4906A805F0B9
S214000D60E9FC994B186040B30023059305A906F0EB
S214000D70CDF80546002840D0944E954C3146206864
S214000D8004F030F800F090F900F08FF9914B0093E2
S214000D907323914A9149206804F024F8904A9149B7
S214000DA0206804F01FF82A468F49206804F01AF8D5
S214000DB03146206804F016F8FEE7844D844C294638
S214000DC0206804F00FF800F06FF900F06EF9814B20
S214000DD000936823804A8149206804F003F8834A18
S214000DE08049206803F0FEFF8149206803F0FAFF7F
S214000DF02946206803F0F6FFFEE7734C7D4A7E4BDB
S214000E001968206805F068FF0021206802F078FC69
S214000E10064600B36D4D6E4C2946206803F0E2FF8F
S214000E2000F042F900F041F96A4B009388236A4AC1
S214000E306A49206803F0D6FF694A6A49206803F0C9
S214000E40D1FF32466D49206803F0CCFF2946206862
S214000E5003F0C8FFFEE74FF001115B4B186806F081
S214000E604EF8054600B3594E594C3146206803F0FB
S214000E70B9FF00F019F900F018F9564B00939423C7
S214000E80554A5649206803F0ADFF554A5549206833
S214000E9003F0A8FF2A465A49206803F0A3FF31460C
S214000EA0206803F09FFFFEE743A3D3E90023CDE9C4
S214000EB000234FF0FF324FF0FF334349086805F038
S214000EC04BFF064600B3414D414C2946206803F0CF
S214000ED089FF00F0E9F800F0E8F83E4B00939D2308
S214000EE03D4A3E49206803F07DFF3D4A3D49206863
S214000EF003F078FF32464349206803F073FF294623
S214000F00206803F06FFFFEE73F4B1B88ADF81030FC
S214000F10ADF80C3004A92C4B186805F005FF064602
S214000F2000B32A4D2A4C2946206803F05BFF00F0E8
S214000F30BBF800F0BAF8274B0093AD23264A2749A2
S214000F40206803F04FFF264A2649206803F04AFF30
S214000F5032462E49206803F045FF2946206803F0F4
S214000F6041FFFEE703A9184B186805F0F3FE064696
S214000F7008B90AB070BD154D154C2946206803F017
S214000F8031FF00F091F800F090F8124B0093B22376
S214000F90114A1249206803F025FF114A11492068BA
S214000FA003F020FF32461A49206803F01BFF29464B
S214000FB0206803F017FFFEE718AC0155E2030000B7
S214000FC03D0D00001F0D00002408002054D5000031
S214000FD0D80E00208CDE0000CCDC000014D400000C
S214000FE03CDD00004CD4000070DD0000ECDC0000AE
S214000FF014DD0000290D00000C0800209CDD000018
S214001000D4DD0000FCDD000088DE000028DE0000E5
S21400101058DE000082B0054B019302AB03EB800064
S21400102050F8043C186802B0704700BF240800203F
S21400103008B5FFF789FE08BD08B5034800F0C6FAF4
S214001040024800F0C3FA08BDA4DE0000BCDE0000C3
S21400105008B5034800F0FCFB024800F0F9FB08BDA9
S214001060D4DE0000ECDE000003460B4A107828B100
S2140010700A4A12789A4202D2002000E00120084A6A
S21400108012783AB1074A127842FA03F313F0010FC6
S21400109000D10020704700BF3F0800204008002015
S2140010A0DC0E0020410800207047704708B5084B4A
S2140010B001221A70074B00221A70074B04221A707E
S2140010C0064B1F221A7003F031FE054B186008BD50
S2140010D03F080020DC0E00204008002041080020C9
S2140010E0D80E002008B5012304221146184601F048
S2140010F0D9FF002008BD08B5FFF7F4FF08BD08B506
S214001100002304221146012001F0CCFF002008BD78
S21400111008B501213A2000F0B5FEFFF7BCFC00F050
S2140011207FF808BD08B501213A2000F0ABFE08BDE7
S214001130012907D0022320F07F4040EAC36040EA3E
S214001140827070470323F6E72DE9F04107460E4606
S21400115001F109054FF0000844460EE0F3B20433EF
S214001160D9B206E008F1010341465FFA83F800E0D1
S2140011705B21082000F044FB0134AC4224D2002C52
S214001180F6D0012CEAD0022C12D0032C12D0042C5C
S21400119012D0052CE6D0B31DA3420FD0F31DA342F8
S2140011A00ED006F10803A3420CD0A31FF95CE0E7BB
S2140011B0D121DEE78021DCE70021DAE75A21D8E7F3
S2140011C05A21D6E75D21D4E70020BDE8F081000073
S2140011D000B583B002218DF8001000220548FFF705
S2140011E0A7FF019008216846FFF7AEFF03B05DF841
S2140011F004FB00BF006A180008B5082000F0F4FAE7
S214001200FFF7E6FF08BD0000014B10221A61704789
S21400121000E00350014B10221A61704700D00350C3
S214001220F0B589B001AC3F4D0FCD0FC495E807006F
S21400123084E8070001213A2000F024FE012128203E
S21400124000F020FE01248DF81240374B0393374FF1
S21400125001A9384602F014F8234604220021022091
S21400126001F020FF002322462146022001F01AFF4B
S214001270234604220221084601F014FF23460422D6
S2140012801146002001F00EFF294D4FF00213C5F85D
S2140012903036A3F58033C5F82C360226C5F83466FA
S2140012A01C23C5F81C364FF4487004F03BF9FFF7D2
S2140012B0ABFF142004F036F9FFF7ACFF232004F050
S2140012C031F9FFF7A1FFB921384602F027F8FFF7FA
S2140012D0A1FF00231A461946304601F0E3FE00231C
S2140012E01A462146304601F0DDFE234600223146EE
S2140012F0304601F0D7FE234600220421104601F0B6
S214001300D1FE384601F08CFF0021C5F83016C5F82E
S2140013102C16C5F83416C5F81C16282000F0B2FDA9
S21400132009B0F0BD04DF000000127A0000C00550CE
S21400133000C00350FEE7000008B500F02DF8124A82
S2140013400AE01068516850F8230041F82300013382
S21400135091688B42F5D30C320C4B9A4201D2002393
S214001360F6E70B4A08E01168002041F82300013335
S21400137051688B42F7D30832064B9A4201D20023BB
S214001380F6E7FEF701FF00BF902C01009C2C010041
S2140013909C2C01009C2C010010B4154B154A9A6039
S2140013A0D3F8882042F47002C3F88820124A4FF41B
S2140013B00041916601F1884101F500524FF0FF307F
S2140013C010664FF6DF7050660220C3F8D000BFF3F9
S2140013D04F8FBFF36F8F09480824C0F880414FF441
S2140013E04033D36004600B615DF8044B704700BF68
S2140013F000ED00E0000000000090005000E100E07A
S214001400014B1868704700BF4808002008B5094B14
S2140014101B6F03F00703022B04D0032B05D0012B10
S21400142006D0FEE7FFF7ECFF03E0034B186800E08A
S214001430024808BD008000504C080020002D3101F5
S21400144008B5FFF7E3FF054B1B6FC3F30333013308
S214001450B0FBF3F0024B186008BD00BF00800050E0
S214001460440800200048704700B4C404014B1868C4
S214001470704700BF4C08002008B5064B1860064BA6
S2140014801B6F03F00703032B00D008BDFFF7D8FF40
S214001490FBE700BF4C08002000800050002070478B
S2140014A000487047002D31014FF4004070474FF45C
S2140014B07A707047014B1868704700BF50080020CC
S2140014C000230360704703680B6001607047D0B16B
S2140014D08446C2B1B9B10020137883B100B501F1DA
S2140014E0FF3E864506D90CF8013B013201301378E1
S2140014F0002BF4D100238CF800305DF804FB0023A9
S2140015008CF8003070477047034640B1002001E079
S214001510013301301A781AB18842F9D37047002097
S214001520704708B54FF0FF31FFF7EEFF08BD80B1FA
S21400153070B50C461546064622B119B1FFF7F1FF05
S214001540844200D870BD2A46211A3044FFF7BFFFF8
S214001550F8E77047F0B18446F1B110B409E004F141
S21400156020030FE02030181A18D1BCB10CF1010C82
S21400157001319CF800400B4BE35C03F00303012BA6
S214001580EDD023460878074A825C02F00302012A5F
S214001590E9D1E7E701207047012070475DF8044B6A
S2140015A0704700BF212B01000346064A106803441B
S2140015B0054A934202D8034A136070474FF0FF3043
S2140015C0704700BF540800200080002008B543681C
S2140015D00BB1984708BD2220FCE708B543690BB15C
S2140015E0984708BDFF20FCE708B50B681A78022A62
S2140015F000D108BD08461A7993F805C002EB4202EE
S214001600120106498A5822FA0CF212F0010F0CBF9A
S214001610012200221A70FFF7DBF9EAE714C0035034
S21400162030B583B00546046801213A2000F02AFC54
S214001630002301226179207901F034FD2379617954
S21400164003EB43031B010F4AD358CB4013F0010FA3
S2140016500CBF012300232370A379022B02D00020A5
S21400166003B030BD00F0A0F92A460749607900F0C3
S214001670C3F902466179207901230193009301F0B2
S2140016807DFCECE714C00350E915000003681878E9
S2140016907047000002681378022B11D01379507936
S2140016A003EB43031B011349CB58C34003F001006F
S2140016B003469179012904D011B980F00100107019
S2140016C070475188490089B20B4343F47F4343F087
S2140016D0C0034FF6E0718B4205D04FF6DF718B42A8
S2140016E004D05380704701211170F6E70021117075
S2140016F0F7E700BF14C0035008B503681A78022A3B
S21400170000D008BD00225A80FFF78AFFF9E710B51F
S21400171082B004682378022B04D0A379022B03D06E
S2140017200223237002B010BD0021607900F054F946
S214001730617920790023019300930A4601F01EFC8C
S214001740EEE7000008B501213A2000F09BFB0123DC
S21400175004220321002001F0A5FC002001F00CFC6F
S2140017601A4B0122C3F844244FF4607000F0AAFB21
S214001770174BD3F8F02042F00102C3F8F020D3F85C
S214001780FC2042F08072C3F8FC20A3F55D43114AAA
S2140017901A6000F5D52000F2FC40C0080E4BA3FBF3
S2140017A00030800A01380D4B18610222C3F8F02081
S2140017B04FF48072C3F804234FF06043084AC3F81E
S2140017C0B02F084AC3F8802E002008BD00D0035072
S2140017D000ED00E0FF03004017916502000004E002
S2140017E055CEACC5090001004FF06041D1F8003E6F
S2140017F0012282401343C1F8003E002070470000DB
S2140018004FF06043D3F8803E13F0010F01D1112052
S21400181070470E4AD2F8FC3043F08073C2F8FC30B2
S2140018204FF06043D3F8002E4FF0010C0CFA00FC8A
S21400183042EA0C02C3F8002E53F82030002BE8D002
S2140018404FF0604303F820100020704700ED00E0E2
S21400185008B543680068984708BD08B5C3680068BF
S214001860984708BD08B503690068984708BD10B5D5
S214001870044601213A2000F005FBA378B3FA83F36F
S2140018805B0904226178207801F00CFC002010BD72
S214001890837873B90378417801228A4003EB4303C7
S2140018A01B0103F1A04303F5703342F210015A50B6
S2140018B070470378417801228A4003EB43031B01FB
S2140018C003F1A04303F5703341F210015A507047FC
S2140018D0837873B90378417801228A4003EB430387
S2140018E01B0103F1A04303F5703341F210015A5077
S2140018F070470378417801228A4003EB43031B01BB
S21400190003F1A04303F5703342F210015A507047BA
S2140019100378417801228A4003EB43031B0103F15D
S214001920A04303F5703343F210015A50704700008D
S21400193010B401460278407802EB42021201064CCF
S214001940A358C34003F001008B780BB980F0010068
S2140019505DF8044B704700BF10C0035010B5044636
S21400196002E0202007E09047DCB194FAA4F00028BB
S214001970F7D0B0FA80F00123834024EA0304094B31
S21400198003EB00135A68002AEED0064B03EB001355
S2140019901B7B002BE7D0034B03EB001399689047A3
S2140019A0E2E710BDE00E002008B5192001F04CF863
S2140019B028B1084B4FF00072C3F880211A601A2035
S2140019C001F042F828B1034B4FF08062C3F8802143
S2140019D01A6008BD00E100E038B505460C4601F087
S2140019E02AF8044B03EB05135C6000221A7301F01F
S2140019F028F838BDE00E0020F8B505460F46164616
S214001A0001F019F805F0FC0C104BD3F82414002351
S214001A10032B0CD8EC1804F0030444EA0C0421FA57
S214001A2004F212F0010F03D00133DBB2F0E7FF241B
S214001A30FF2C06D0064B03EB04135F609E6001226A
S214001A401A7300F0FEFF2046F8BD00BF00C003502A
S214001A50E00E002008B5084BD3F82404D3F8202461
S214001A60104000F0553020F0502003F50053C3F826
S214001A702004FFF773FF08BD00C0035008B5084BED
S214001A80D3F82404D3F82024104000F0AA3020F025
S214001A90A02003F50053C3F82004FFF75FFF08BD3E
S214001AA000C00350024B4FF480321A67704700BFE5
S214001AB00090005038B505460C46FFF7A7FC05B168
S214001AC028600CB10D23236038BD000038B50546EC
S214001AD00C460F4BD3F8203103F00303022B0ED035
S214001AE0032B10D0012B06D00023184605B1286022
S214001AF004B1236038BDFFF783FC0523F6E7FFF744
S214001B00B5FC0323F2E7FFF7CBFC0223EEE700BFAA
S214001B100080005070B582B006460D460023019343
S214001B200D4BD3F8804104F00304012C09D0022C9D
S214001B300DD000240EB1019B336005B12C6002B0BD
S214001B4070BD002101A8FFF7C1FF0F24F2E7FFF7E1
S214001B50A7FC0190EEE700BF0080005038B50546B0
S214001B600C46164BD3F8243103F00703013B052B34
S214001B7020D8DFE803F0030F171B0B13FFF740FC1A
S214001B80052305B1286004B1236038BDFFF738FC93
S214001B900623F6E7FFF76AFC0323F2E7FFF766FC87
S214001BA00423EEE7FFF77CFC0223EAE7FFF776FC68
S214001BB00723E6E700231846E3E700BF008000504F
S214001BC038B505460C46104BD3F8000100F003006C
S214001BD0032815D8DFE800F002080C10012305B131
S214001BE0286004B1236038BDFFF740FC0323F6E706
S214001BF0FFF760FC0823F2E7FFF750FC0723EEE749
S214001C0000231846EBE700BF0080005038B50546B5
S214001C100C460F4BD3F8403103F00303022B0ED0D3
S214001C20032B10D0012B06D00023184605B12860E0
S214001C3004B1236038BDFFF737FC0923F6E7FFF74A
S214001C4039FC0823F2E7FFF732FC0B23EEE700BF70
S214001C500080005008B50B4BD3F8203203F0030386
S214001C60012B08D0022B09D008B10023036021B154
S214001C7000230B6001E0FFF729FF08BDFFF7C6FF52
S214001C80FBE700BF0080005030B583B005460C4629
S214001C90002301934FF0E0231B6913F0040F0CD0D0
S214001CA0FFF7CEFB01900C2300930DB1019B2B6038
S214001CB00CB1009B236003B030BD694601A8FFF756
S214001CC0A5FFF2E738B505460C46124BD3F80032AE
S214001CD003F00703013B032B18D8DFE803F0020AE2
S214001CE00E12FFF7E1FB092305B1286004B123605B
S214001CF038BDFFF7DFFB0823F6E7FFF7D8FB0B231B
S214001D00F2E7FFF79DFB800A0E23EDE70023184657
S214001D10EAE700BF0080005038B505460C460F4B7A
S214001D20D3F8403203F00303022B0ED0032B10D05F
S214001D30012B06D00023184605B1286004B12360A5
S214001D4038BDFFF7B1FB0923F6E7FFF7B3FB08231F
S214001D50F2E7FFF7ACFB0B23EEE700BF0080005076
S214001D6038B505460C460F4BD3F8603103F0030335
S214001D70022B0ED0032B10D0012B06D000231846C2
S214001D8005B1286004B1236038BDFFF78DFB092339
S214001D90F6E7FFF78FFB0823F2E7FFF788FB0B2336
S214001DA0EEE700BF00800050B0F5207F20D00ED8B0
S214001DB0B0F5007F16D020D810B1B0F5C07F04D1A2
S214001DC00F4B186FC0F3033018E0002016E0B0F594
S214001DD0607F05D10A4BD3F88000C0F301100DE0F8
S214001DE000200BE0064BD3F89000C0F3046005E03B
S214001DF0034B186FC0F3802000E0002001307047CE
S214001E000080005038B505460C46174B4FF400329C
S214001E109A660020FFF7C8FF05FB00F0134BDA694F
S214001E2002F4803241F67131D9639B6823F4401383
S214001E306CB90F49884207D800210B430B498B60C9
S214001E400AB10022CA6338BD4FF48011F5E7002CB2
S214001E5007DD0749884201D80021EEE74FF48011DC
S214001E60EBE74FF44011E8E7009000500000035005
S214001E70005A620208B5FFF7F5FA0021FFF7C2FF25
S214001E8008BD0000430907D0012B10D0022B01D05B
S214001E90094A02E0094A00E0002200F01F0041B1B2
S214001EA002F58052012303FA00F010607047044ADE
S214001EB0F3E702F50052F5E76082005068800050B4
S214001EC06480005010B582B0002301930093B0F5F3
S214001ED0807F00F2EF802028C0F0E7802038E028DE
S214001EE000F2E580DFE810F02C011E012C011E0137
S214001EF033013301330133011E011E0160014F011E
S214001F003E016A014F011E011E011E01E300E300AF
S214001F10E300E300E300E30046015B011E011E014F
S214001F201E01F4006F011E01E300E300E300E3007E
S214001F30E300E300E300E300E300E300E300E30084
S214001F40E3002C01E3002C012C012C013301E300FB
S214001F50E300E300E300E300E300E300E300E30064
S214001F60E300E300E300E3002C012C01E300E300C0
S214001F70E300E300E300E300E300E300E300E30044
S214001F80E300E300E300E300E300E300E300E30034
S214001F90E300E300E300E300E300E300E300E30024
S214001FA0E300E300E300E3004B01E300E300E300AB
S214001FB0E300E300E300E300E300E300E300E30004
S214001FC0E300E300E300E300E300E300E300E300F4
S214001FD0E300E300E300E300E300E300E300E300E4
S214001FE0E300E300E300E300E300E300E300E300D4
S214001FF0E300E300E300E300E300E300E300E300C4
S214002000E300E300E300E300E300E300E300E300B3
S214002010E300E300E300E300E300E300E300E300A3
S214002020E300E300E300E300E300E300E300E30093
S214002030E300E300E300E300E300E300E300E30083
S214002040E300E300E300E300E300E300E300E30073
S214002050E300E300E300E300E300E300E300E30063
S214002060E300E300E300E300E300E300E300E30053
S214002070E300E300E300E300E300E300E300E30043
S214002080E300E300E300E300E300E300E300E30033
S214002090E300E300E300E300E300E300E300E30023
S2140020A0E300E300E300E3006501002848D0019860
S2140020B002B010BDB0F5906F71D00ED9B0F5D06FEC
S2140020C07CD049D9B0F5E06F7DD0B0F5F06FEED199
S2140020D0002101A8FFF744FEE9E7B0F5407F52D0A3
S2140020E00FD9B0F5607F2FD100216846FFF7E2FCDC
S2140020F0009C4FF46070FFF757FEB4FBF0F40194B9
S214002100D5E7B0F5007F0AD1FFF780F904464FF413
S2140021100070FFF749FEB4FBF0F40194C7E7B0F592
S214002120207F0AD1FFF78CF904464FF42070FFF7A2
S2140021303BFEB4FBF0F40194B9E7B0F5C07FB6D12E
S214002140FFF77EF90190B2E7B0F5806FAFD10021BE
S21400215001A8FFF7BBFCAAE7B0F5B06F24D0B0F536
S214002160C06F04D1002101A8FFF750FD9FE7B0F52E
S214002170A06F9CD1002101A8FFF76CFD97E7FFF741
S21400218045F9019093E7FFF75BF904464FF420709A
S214002190FFF70AFEB4FBF0F46408019487E7002119
S2140021A001A8FFF7DBFC82E7002101A8FFF7B2FCDD
S2140021B07DE7002101A8FFF767FD78E7002101A869
S2140021C0FFF780FD73E7002101A8FFF7A5FD6EE786
S2140021D008B58020FFF776FE034B984203D8034BE2
S2140021E04FF480321A6708BD005A620200A0005001
S2140021F000B583B000230193B0F5807F7CD00FD963
S214002200B0F5D06F7DD039D9B0F5006F4BD04FD92F
S214002210B0F5086F67D101A90020FFF7D1FC62E096
S21400222052281ED824285ED324382E285BD8DFE810
S21400223000F05E5E5E5E5A5A565A2F685A5A5A5ACE
S2140022405A5A5A5A5A5A6D5A5A5A5A45725A5A5AD3
S2140022505A5A5A5A5A5A5A5A5A5A5A5A5A5A5A5AD9
S2140022605E0080283FD12E4B1B6F03F00703013B17
S214002270032B38D8DFE803F030272A2DB0F5A06FFF
S21400228044D00AD9B0F5B06F29D0B0F5C06F2AD1C6
S21400229001A90020FFF7BAFC25E0B0F5806F26D034
S2140022A0B0F5906F1FD101A90020FFF757FC1AE088
S2140022B0B0F5E06F2FD0B0F5F06F14D101A9002073
S2140022C0FFF74EFD0FE0052301930CE00323019377
S2140022D009E00723019306E00223019303E001A926
S2140022E00020FFF717FC019803B05DF804FB01A976
S2140022F00020FFF7EBFBF6E701A90020FFF7C4FC80
S214002300F1E701A90020FFF7DDFCECE701A90020BA
S214002310FFF7A0FCE7E701A90020FFF7FDFCE2E7D6
S2140023200080005010B504468020FFF761FF0328A8
S21400233000F09D804E4B4FF400225A6603F5405342
S21400234045F60E02C3F8802003F580520221916202
S21400235003F5005301229A62464B9B6D13F4803FAF
S214002360FAD1226863681B0543EA0263227B43EACC
S2140023700243627B43EA0233A27B43EA8213E27B98
S21400238013433C4A1361936903F00043216943EA0F
S2140023908163616943EA0163217E43EA0143617E0A
S2140023A043EA0123A17E0B439361136A23F00D03D6
S2140023B0E269002A42D111460B43E17E43EA8103DB
S2140023C013432C4A1362E369002B39D1936A23F036
S2140023D0330394F8201043EA411394F8211043EA9B
S2140023E0011343F001039362224B9A6D224B9343F1
S2140023F0FAD1204B03F5805102228A621A651D4BE2
S2140024009B6D13F0804FFAD11A4B1A6922F47002B2
S214002410A16842EA01521A6103F580534FF0004268
S2140024209A6194F8223013B9144B02229A6294F8F7
S2140024302330ABB9114B01229A6211E00821BBE7A9
S2140024400C4A936A23F0330394F8201043EA4113AE
S21400245094F8221043EA410394F823100B43936246
S21400246094F824301BB1034B054AC3F8802010BDF6
S2140024700090005000C000500300014000E00050F3
S214002480F1A7FFFF014B93F900007047E010002012
S21400249010B443784F2B28BF4F231A461C4B4FF4DB
S2140024A08001596603F5B8334FF4D151596203F5EC
S2140024B0805102244C6003F5005301215960154BEE
S2140024C01B6913F4803FFAD1037842EA0323114ACA
S2140024D05361416883681B0143EA0123017B43EA99
S2140024E04103417B0B439360817BC37B1B0143EA23
S2140024F04113017C43EA4103417C0B435360837CD8
S2140025001BB113466FF4D1525A625DF8044B704704
S2140025100090005000000250014B1880704700BF2A
S2140025205808002008B5002903DD0121FFF76AFCE2
S21400253008BD0021FFF766FCFAE70000B0F5207F33
S21400254048D02DD8B0F5007F39D04CD810B1B0F5B2
S214002550C07F24D110B54C1EFFF78CFC00F048F865
S214002560FFF7A0FA204B196F21F4704141EA0431BD
S2140025701967FEF765FF1D4BD3F8843013F0100F74
S214002580F9D11A4BD3F88410C1F38111C1F10201BD
S214002590FFF7C8FF00F034F8FFF71AFE10BD7047CB
S2140025A0B0F5607F0AD101390F4AD2F8803023F0A7
S2140025B0300343EA0111C2F88010704770470139B2
S2140025C0094AD2F8903023F0F85343EA0161C2F882
S2140025D0901070470139044A136F23F4806343EA6E
S2140025E081211167704770470080005000400050FE
S2140025F008B502214FF42070FFF7A0FF08BD0000C9
S21400260008B54FF4C070FFF75DFC054B984205D93E
S21400261002214FF42070FFF791FF08BD0121F8E773
S21400262080F0FA0270B50C46B0F5807F00F0258188
S21400263021D9B0F5D06F00F0A38161D9B0F5006F55
S21400264000F0858040F28F80B0F5086F40F0FC8087
S214002650072900F0B281082900F0B181032900F0B3
S214002660AA8100219E4AD2F8003123F003030B43CF
S214002670C2F80031E8E0522837D82428C0F0E480B9
S21400268024382E2800F2E080DFE810F0E100E100B8
S214002690E100E100DE00DE00D100DE0047007A0146
S2140026A0DE00DE00DE00DE00DE00DE00DE00DE0035
S2140026B0DE00DE009B01DE00DE00DE00DE007400D1
S2140026C0AD01DE00DE00DE00DE00DE00DE00DE0045
S2140026D0DE00DE00DE00DE00DE00DE00DE00DE0005
S2140026E0DE00DE00DE00DE00E100802840F0AC8088
S2140026F08B1E052B51D8DFE803F09482509750913B
S214002700B0F5A06F00F05D811AD9B0F5B06F00F09B
S2140027108E80B0F5C06F40F097800A2C00F20681DC
S214002720092C80F00781082C40F0068102226C49B3
S214002730D1F8403123F003031343C1F8403183E05E
S214002740B0F5806F00F08380B0F5906F7CD1023CCE
S214002750052C00F2FF80DFE814F00101FF000701FE
S214002760090105010301B0F5E06F00F03C81B0F50A
S214002770F06F69D10A2C00F2E380092C80F0E48027
S214002780082C40F0E38002225549D1F8603123F04E
S21400279003031343C1F8603156E000252E4601219D
S2140027A0022000F06DF9FFF765FBFFF721FFFFF74A
S2140027B079F94B4A136F23F0070333431367FEF789
S2140027C03FFE484BD3F8843013F0100FF9D1454B39
S2140027D0D3F88410C1F38111C1F10201FFF7A2FE04
S2140027E00121002000F092F9FFF70AFFFFF7F0FC46
S2140027F055BB032C28D13C4B01229A6224E03B4B6C
S2140028004FF400225A6603F540539D6AC5F340050F
S21400281003F5805301229A620E46C0E7002504267F
S214002820BDE700250126BAE700250226B7E7022CF9
S21400283002D00F2C09D10124294BD3F8801121F0A6
S21400284003010C43C3F8804170BD0024F4E7032C59
S2140028500FD0052C0FD0022C09D00021204AD2F828
S214002860203123F003030B43C2F82031ECE70321A9
S214002870F4E70221F2E70121F0E7A1F10804082CB1
S214002880E2D801A353F824F0AD280000AD280000DC
S21400289049280000AD280000F9280000492800005B
S2140028A04928000049280000AD2800000C4B596E4E
S2140028B003F580534FF480325A660D4A136A43F08C
S2140028C00103136211F4803F03D10A4B4FF48032A8
S2140028D05A664FF0E022136923F004031361B3E74E
S2140028E0008000500040005000E000500090005073
S2140028F000C0075000A00050484B596E03F58053A7
S2140029004FF480325A66464A136A23F00103136274
S21400291011F4803F03D1434B4FF480325A664FF098
S214002920E022136943F0040313618DE70B2C05D1F5
S2140029300322FCE60122FAE60022F8E60022F6E68A
S2140029400B2C05D103221FE701221DE700221BE7FF
S214002950002219E700210AE0022108E0032106E030
S214002960042104E0052102E0062100E001212B4AB3
S214002970D2F8243123F007030B43C2F8243163E76F
S214002980083C062C05D8DFE804F0060C0C08040406
S2140029900A00002106E0022104E0032102E00421EF
S2140029A000E001211D4AD2F8003223F007030B4352
S2140029B0C2F8003248E7012154E6032152E602211C
S2140029C050E60F2C0BD0102C0BD10221134AD2F854
S2140029D0203223F003030B43C2F8203234E70121F0
S2140029E0F4E70021F2E70A2C0DD8092C0FD2082CA8
S2140029F00FD102220949D1F8403223F003031343D2
S214002A00C1F8403220E70B2C05D10322F2E7012261
S214002A10F0E70022EEE70022ECE700BF008000505F
S214002A2000C0075000A00050EFF3108072B6704749
S214002A3000B962B67047EFF31180302383F3118834
S214002A40704780F3118870474209064B53F82230CE
S214002A5000F01F0023FA00F080F0010000F00100F3
S214002A60704700BF00E100E0034AD36E23F0300356
S214002A7001790B43D3667047004000507047000052
S214002A80F8B50446204BD3F8843013F0100FF9D174
S214002A901D4BD3F88430C3F381139C422DD0FEF730
S214002AA0B5FC0646012C11D0FFF7BEFF0546164FB3
S214002AB007F500534FF000725A662046FFF7DEFF18
S214002AC0621E4FF4806393403B6706E00121FFF7E8
S214002AD029FDE9E70C4BD3F884300B4B5B6E13F003
S214002AE0007F05D1084BD3F8843013F0200FF1D0C7
S214002AF02846FFF79DFF022C00D0F8BD0021304687
S214002B00FFF710FDF9E700BF0040005010B50C4677
S214002B10034650B1094A127812B1094A934208D9BD
S214002B2021460220FFF7ACFF10BDFEF76FFC034600
S214002B30F0E721460120FFF7A3FFF5E7E4100020A9
S214002B40005A620208B51D4B4FF000425A6603F564
S214002B500B2303F58052012151605A6C0A404AF655
S214002B60CD311964A8B99B6813F0010F07D0144B38
S214002B7001219960134BDB6A13F0010FFAD0104B5A
S214002B800121596012B10F4B0F4A1A6404F0F3F892
S214002B9008BD0C4BDB6A13F0080FFAD1094B03F59E
S214002BA000512020486203F5805301219960054BAF
S214002BB05B6A13F0200FFAD0E4E700BF00900050E5
S214002BC000600950004009503254FFFF10B51B4BFF
S214002BD04FF000425A661A4A02F5805301215960A6
S214002BE0546C0C404AF6CD33136443788B400B4349
S214002BF01449CB63936823F07403827843EA021384
S214002C00C278C2B1042213430D4A936001798379D6
S214002C1043EA012313614179C37943EA01235361EF
S214002C200078FFF78FFF14B1054B074A1A6404F0CB
S214002C30A2F8012010BD0022E5E700BF009000507A
S214002C4000400950004000503254FFFF034B9842AA
S214002C5001D0002070473820704700BF0000035A9C
S214002C60436813F0010F19D00A230363C36C13F0F3
S214002C70500FFBD1036C13F0030FFBD1836A836202
S214002C80C36C13F0010FFBD100E0436B036C13F031
S214002C90800FFAD100F5005301225A600023C3606A
S214002CA0836041F202020261C36143618361036291
S214002CB04362C362836400F5005202495164836232
S214002CC0704700BF7F370C010A46F1B100F580530C
S214002CD00121596002F00F01C36CC3F30A03002BF5
S214002CE0FAD10163C36C13F07803FBD112F0010F25
S214002CF000D0012312F0040F01D043F00203026C4F
S214002D0002F003029A42FAD17047436813F0010FAB
S214002D10FAD00A230363C36C13F0500FFBD1036C85
S214002D2013F0030FFBD1836A8362C36C13F0010FA9
S214002D30FBD100E0436B036C13F0800FFAD100F573
S214002D400050012343607047036C13F0800FFBD0E4
S214002D50406BC0B27047036C13F0400FFBD0C163EA
S214002D607047000038B5044615460846F1B163685A
S214002D70A36803F0E003402B23D01DD9602B24D09A
S214002D80802B12D10123400105FB03F3B0FBF3F0C7
S214002D9020380F4B03EAC000E36C13F0010FFBD1A1
S214002DA0A062E36C13F0010FFBD138BD2046FFF79D
S214002DB04DFFFFF787F8DAE72BB1202BF5D1082374
S214002DC0E1E70623DFE71023DDE70423DBE700BFA8
S214002DD0F8FF7F0070B504460D461646436823B1DB
S214002DE0E36CC3F30A03002BFAD12046FFF738FF43
S214002DF0236923F44C5323F003036A7B1343EA89C5
S214002E0013432A8A13432361A36823F0804323F0E5
S214002E10E2032A7B13432A7E13436A691343A360A3
S214002E20AB681BB9A36843F00043A360EA69002AB5
S214002E305ED0A368127A43EA8253A360A368EA6965
S214002E40927A43EA4243A360A368EA69928802F44E
S214002E50C0421343A360A368EA69527843EA820338
S214002E60A360A368EA69527B43EAC203A360A3682F
S214002E70EA69927B43EA0213A360A368EA69927840
S214002E8043EA8223A360EA699179D3795B0243EA35
S214002E908123E360EB691B78012B01D0032B03D160
S214002EA0E36843F00403E360EB691B78023BDBB2A4
S214002EB0012B35D9274B0122C3F8C020EB695A7A7B
S214002EC004F580531A62EB695B7A1BB1E36843F43E
S214002ED00063E360EB69DB7A53B1E36843F40043D5
S214002EE0E360EB691B7B03F00F031B4AC2F88030DC
S214002EF036B196F82030C3B104F5805301229A61AA
S214002F0005212046FFF7E0FEAA68EAB929782046A0
S214002F10FFF7DAFE236CDB4313F4405FFAD170BD93
S214002F200E4B0122C3F8C020C8E7636923F00903EB
S214002F3096F82220134396F82120134343F001030A
S214002F4004F580525361DBE769682046FFF70AFF05
S214002F50DCE700BF00E403500090035000D40350A9
S214002F6008B500231A46FFF735FF08BD08B500234D
S214002F701A46FFF72FFF08BD704700002DE9F84FEF
S214002F800C4615461E469DF828809DF82C70072A8C
S214002F9044D84FEA8209032303FA09FA00FA09F92A
S214002FA0FFF742FD384AD2F8001489EA010303EA23
S214002FB00A034B40C2F80034FFF73AFD4FF0000A10
S214002FC0072D43D8A9004FF0030909FA01F904F0C8
S214002FD003048C40FFF728FD2B4BD3F808245440FD
S214002FE004EA09045440C3F80844FFF721FD002E04
S214002FF044D0264A0123AB401360B8F1000F3FD0FF
S214003000234A1360012202FA05F5224AC2F8205428
S214003010C7B3A2F6DC321360BDE8F88FA2F1080A47
S2140030204FEA8A09032303FA09FB00FA09F9FFF7B6
S214003030FBFC154AD2F8041489EA010303EA0B03E1
S2140030404B40C2F80434FFF7F3FCB9E74FEA8A0AAC
S2140030504FF0030909FA0AF904F0030404FA0AF423
S214003060FFF7E2FC084BD3F80C24544004EA0904AA
S2140030705440C3F80C44FFF7DBFCB8E7064AB9E750
S214003080064ABEE7064AC6E700C0035010D40350FF
S21400309014D4035000E0035010E4035014E403502B
S2140030A024E403502DE9F04704460E461F4690469A
S2140030B062B1D3B301228A4000EB40031B0103F147
S2140030C0A04303F5703341F210015A50072E39D849
S2140030D004EB44031B01DFF8C4909944B3004FF09F
S2140030E00F0A0AFA03FA08FA03F5FFF79DFCD9F867
S2140030F0002085EA020303EA0A035340C9F80030B9
S214003100FFF796FCB8F1000F0DD1C7B3012101FA05
S21400311006F604EB4404240104F1A04404F57034DC
S21400312041F21003E650BDE8F08701228A4000EB2A
S21400313040031B0103F1A04303F5703342F2100174
S2140031405A50C3E704EB44031B01DFF8549099443C
S214003150A6F1080292004FF00F0A0AFA02FA08FADD
S21400316002F5FFF761FCD9F8003085EA030202EAAF
S2140031700A025A40C9F80020FFF75AFCC2E70121AC
S21400318001FA06F604EB4404240104F1A04404F515
S214003190703442F21003E650C5E700BF04C0035087
S2140031A00CC00350074B4FF480325A6603F5E623F3
S2140031B05B69C3F38512827003F03F0242701B0BFB
S2140031C003707047009000500A4B984207D00A4B95
S2140031D0984209D0C36D43F08003C3657047A3F5DA
S2140031E01033C3F88C11F5E7A3F52033C3F89C1110
S2140031F0F0E700BF00C005500000065038B5054691
S21400320014460B4631B1013B6400B3FBF4F31B02DA
S214003210EB6138BD4FF42070FEF754FE0346F2E72C
S21400322000F5805301225A6040F6AA6343610023EA
S2140032308360C36541F20502C2600361C361C36473
S21400324000F500520C49916483650C4B984203D0FC
S21400325003F58043984201D100230365074B98424B
S21400326003D003F58043984201D10023436500F55F
S2140032700050012343607047FFFF010000C0055067
S21400328038B505460C46FFF7CBFF05F580530122FF
S2140032905A60AA68238A43F00103A17B002934D030
S2140032A04FF480610B431343AB60AB68227D002A6A
S2140032B02DD04FF000521343AB60A37C4BBB237B57
S2140032C043F48053EB60A26861682846FFF796FFD8
S2140032D0637B0BB110236B61637D1BB1AB6843F45A
S2140032E08033AB60A37D1BB1AB6843F40043AB6097
S2140032F0E37D1B0703F0E043227E120502F4E002A2
S2140033001343AB6523786B6138BD0021CAE7002202
S214003310D1E7E17C2846FFF757FFD0E7836913F033
S214003320400FFBD0C163836913F0200FFBD0406AC7
S214003330C0B2704738B5044603F030FD054DA446CC
S214003340BCE80F000FC59CE8030085E803000020DA
S21400335038BD00BFE810002047F6FF739A4275D0CC
S214003360022975D870B53C4B03EBC10090F802C03B
S214003370604613F83130012B22D0374B03EBC103E4
S2140033805C68002C66D0B4F90050954204DBB4F9B2
S2140033900250954200DC1546A388FF2B2BD028262A
S2140033A0C8230022AE465B1B93FBF6F313442A4A5F
S2140033B002EBC1014D78691E994231D319462FE0C0
S2140033C0254B03EBC103D878A0EB0C000025A842E0
S2140033D00ED9431BA0EB53031F4C04EBC1046468D7
S2140033E034F91340944201DC1D46F0E7581EEEE720
S2140033F06044C0B229E0B4F90630B4F9086001228E
S214003400D0E703F5FA73154AA2FB03239B094A1C6F
S214003410954210D904EBC206B6889E420BD31146DD
S21400342004EBC1029368B2F9062002FB0E33002BB0
S214003430E7DA0023E5E704EBC1018A889A4200D365
S2140034401A46624500D31046C0B270BDFF207047D2
S214003450002070470020F8E7E8100020D34D6210E7
S21400346002296DD8394B13F83130012B23D010B513
S214003470364B03EBC1035C68002C63D014F1040CDC
S21400348062D0324B03EBC1039B7893422BD22F4B77
S21400349003EBC103DB78934228D92C4B03EBC10125
S2140034A091F801E00EF1FF3E5FFA8EFEA388FF2B37
S2140034B01FD0002321E0254B03EBC103DB789342AA
S2140034C000D21A46214800EBC1008078121AD2B208
S2140034D01B1A9A4200DD00221C4B03EBC1014B680D
S2140034E033F912007047B4F9020010BDB4F90000B9
S2140034F0FBE7012301E00133DBB2734505D2591C1B
S2140035003CF8310091B28842F5D24FF47A7101FB53
S21400351002F20CEBC30CDCF80430D31ABCF9022020
S21400352002EBD27103EB610393FBF2F3B4F90000F4
S2140035309842DADBB4F902009842D6DC18B2D4E737
S214003540034870470248D0E70148CEE7E81000205D
S2140035500080FFFF08B50348FFF7ECFE012003F0EC
S21400356059FC08BD20DF000030B583B0044603F0E8
S21400357053FC08B103B030BD6946204603F010FC8A
S21400358000B1FEE79DF800300C4A12789342F1D065
S214003590032B06D164250949204603F0EEFB28B12B
S2140035A0FEE7204603F020FC0546F4E729462046C1
S2140035B003F0F8FB0028DDD0FEE700BF5C08002023
S2140035C008B5002103F090F9002008BD30B589B099
S2140035D005460C4600230193029303930493059338
S2140035E00693079364220192962302930392049310
S2140035F003F07EFD611E042929D8DFE801F0030CE4
S21400360011171D00284603F08BFD0446CCB104BB01
S214003610204609B030BD284603F088FD0446F5E78D
S2140036200021284603F088FD0446EFE702212846DD
S21400363003F082FD0446E9E7284603F06BFD0446E6
S214003640E4E701A9284603F063F90446DFE701240E
S214003650DDE7284603F05BFDDAE770B58CB004467C
S2140036600D462C22002101A809F04BF801238DF805
S21400367008304FF42872ADF80A2002228DF80C208C
S2140036808DF80D308DF80E208DF80F3064220492E0
S214003690B62105910692C02207920B228DF82C20A7
S2140036A08DF82D3001A9204603F0B8FC064650B927
S2140036B0063D032D1DD8DFE805F0020D1217204643
S2140036C003F0E2FC0646B6B1204603F0F5FC3046B1
S2140036D00CB070BD204603F0DDFC0646F3E720463E
S2140036E003F0E4FC0646EEE7204603F0D9FC064667
S2140036F0E9E70126E8E70821204603F0F5F8E6E7C3
S21400370008B5052907D84BB263B911B9FFF758FFBA
S21400371000E0012008BD8B1FDBB2032B05D8FFF7A6
S2140037209CFFF7E7FFF752FFF4E70120F2E70000FF
S21400373000B587B000230193029303930493059387
S21400374002238DF804300A4A02928DF80D300422C6
S2140037508DF80E208DF8133005238DF814300DEB00
S21400376002014FF0FF3003F013FC07B05DF804FBD6
S214003770006A180008B500214FF0FF3003F00BFC7C
S21400378008BD00002D2822D8DFE800F017212121EF
S2140037902121212121212121212121212121212114
S2140037A0212121212121212121211B212123212108
S2140037B021211D212121211F211907487047074873
S2140037C070470748704707487047074870470748DC
S2140037D070470748704700BF44E10000DCDF000088
S2140037E0F0DF000018E0000030E00000A4DF00007A
S2140037F0B4DF0000704700207047002070470000CC
S21400380010B504464FF42F72002108F07AFF80238B
S214003810C4F88C30044B63600123237204F19C00CF
S214003820FDF74EFE10BD00BF50E0000010B5034689
S2140038300846D3F8A0202AB1D3F8A4109047002455
S214003840204610BD184600F0A7FD04460028F7D015
S214003850FFF798FF0146024801F011F9F0E700BFB4
S21400386090D3000001230372437A03B9704710B562
S214003870044600F039FF04F109012046FFF7D6FFA1
S214003880204600F038FE10BDF8B5067816B10026C2
S2140038903046F8BD0546FFF7B0FF0028F8D10123F3
S2140038A02B702B7A0BB9374616E000232B7269680B
S2140038B0194801F0E4F8F6E701F0C5F8044614E00C
S2140038C02846FFF797FFE1B2284600F049FF064674
S2140038D0B4F1FF3F0ED06EB9D5F8B442B4F1FF3F55
S2140038E0EAD04FF0FF33C5F8B432B4F1FF3FE7D16A
S2140038F00127EDE71EB900232B703E46C8E7284691
S214003900FFF7B0FF2B7A002BF5D06968024801F06C
S214003910B6F800232B72EEE754E0000038B50446F4
S2140039200D46FFF76DFF6B68C4F8B032A9682046F5
S21400393000F0F8FB4FF0FF33C4F8B4322046FFF730
S2140039405AFF38BD08B5FFF79FFF08BD1038072897
S21400395001D80120704700207047A0F11003072B04
S21400396000D8D8B270470000F8B506460D46174690
S2140039700B78302B0DD04FF0000C15F80C30002BC8
S2140039804AD0374C1B5D13F0040F66D00CF1010CC7
S214003990F3E74B78782B04D0582B0CD04FF0000C64
S2140039A0EBE70222AB5C43B12D495B5C13F0440F9E
S2140039B051D00132F6E70222F4E7724206F0030322
S2140039C002F0030258BF5342032B16D1284608F0D4
S2140039D06FFF0238013608D4B310B0EBA60F06D03E
S2140039E09842ACBF0020012038E00336F4E7A87800
S2140039F037288CBF0020012030E0284608F058FF0A
S214003A00831E3246002E05DBB3EBA20FD4BF012087
S214003A10002023E0F21CF7E70A220021284609F0DE
S214003A2085F802460C46202E11D02FB151EA00032D
S214003A3002D0421E61F100040123B340013B134053
S214003A40002C08BF93420CBF0120002006E0B1FA0C
S214003A5081F0400902E0002000E00020F8BD00BF31
S214003A60212B010008B50B782D2B04D0002201383D
S214003A70FFF77AFF08BD012211440138FFF774FFF3
S214003A80F8E7000003787B2B1CD14FF0000C0123D5
S214003A90C25C7D2A0ED00E49515C11F0440F03D053
S214003AA00CF1010C0133F3E7202A01D00020704707
S214003AB00133EDE71844437833B91CF0010F05D104
S214003AC00120704700207047002070470020704794
S214003AD0212B010008B5072826D8DFE800F0060BE2
S214003AE01015191D0421012008BD00220820FFF72B
S214003AF03BFFF9E700221020FFF736FFF4E700222D
S214003B002020FFF731FFEFE70820FFF7ABFFEBE7DA
S214003B101020FFF7A7FFE7E72020FFF7A3FFE3E764
S214003B200846FFF7AFFFDFE70020DDE72DE9F043AB
S214003B3083B00C4617461D460A9EDDF82C802128C9
S214003B402BD8DFE800F0112D445A71889EA22A2A4D
S214003B502A2A2A2A2A2A2A2A2A2A2A2A2A2A2A2AC0
S214003B602A2A2A2A2A2A2AD300221146204609F07F
S214003B7059F8D8F80030C0B245F82300D8F800301D
S214003B80326805EB830347F82230D8F8003001335B
S214003B90C8F8003033680133336003B0BDE8F08303
S214003BA000221146204609F03DF8D8F8003080B2D1
S214003BB045F82300D8F80030326805EB830347F851
S214003BC02230D8F800300133C8F80030E2E700228F
S214003BD01146204609F026F8D8F8003045F82300AC
S214003BE0D8F80030326805EB830347F82230D8F85F
S214003BF000300133C8F80030CCE7002211462046DA
S214003C0008F0F4FE40B2D8F8003045F82300D8F8A3
S214003C100030326805EB830347F82230D8F80030CE
S214003C200133C8F80030B5E700221146204608F0F8
S214003C30DDFE00B2D8F8003045F82300D8F8003092
S214003C40326805EB830347F82230D8F8003001339A
S214003C50C8F800309EE700221146204608F0C6FE4F
S214003C60D8F8003045F82300D8F80020336805EB74
S214003C70820547F82350D8F800300133C8F80030E2
S214003C8088E7336847F8231084E74FF000098DF87B
S214003C900690C846012512E0013510E08DF8053083
S214003CA008F101081022002101A808F09FFE09F182
S214003CB00203E05409F101091FFA89F90135635D31
S214003CC07D2B09D0202BE7D018F0010FE6D18DF818
S214003CD0043008F10108F1E784F800904FEA19294A
S214003CE084F80190336847F8234053E7336847F871
S214003CF023104FE72DE9F04F87B09B46002305932E
S214003D0004938B4500F38A8080468A4617461C46F5
S214003D101E46994602E04FF00109013418F80400E7
S214003D20FF280CD02028F6D0212805D0FFF70EFE5D
S214003D300028F2D00646F0E74FF00109EDE7054609
S214003D405C44B9F1000F06D0013C544568DC002401
S214003D50A146029443E03EB1013C544562DC002497
S214003D60CDF80890A1463AE0A2455DD1002402961F
S214003D70A14634E008EB09035B78FF2B0ED02B201E
S214003D8049E0039B43445B78FF2B4FD1012302930A
S214003D9004E009F10109354600E00625029B93B9C7
S214003DA057F824102846FFF795FE002842D004ABAB
S214003DB0019305AB0093119B109A57F824102846E0
S214003DC0FFF7B4FE0AE004AB019305AB0093119B2A
S214003DD0109A57F824102120FFF7A8FE0134544506
S214003DE018DA5C45D9DBCDF80C9018F80960202E5F
S214003DF0C0D0212EC5D03046FFF7A8FD0028C8D079
S214003E00039B43445B78FF2B12D13046FFF7A5FD9A
S214003E100546C3E7002007B0BDE8F08F2120FAE78B
S214003E202B20F8E72B20F6E72B20F4E72B20F2E7F1
S214003E302B20F0E72620EEE7212816D821283AD8AE
S214003E40DFE800F0113B191B1D1F212339393939D2
S214003E50393939392527292B2D2F31333939393935
S214003E6039393939353718487047FE2827D0FF28A2
S214003E7027D11648704716487047164870471648A8
S214003E8070471648704716487047164870471648D9
S214003E9070471648704716487047164870471648C9
S214003EA070471648704716487047164870471648B9
S214003EB070471648704716487047164870471648A9
S214003EC070471348704700BF04E1000014E100008B
S214003ED068E0000070E0000078E0000080E000008D
S214003EE088E0000090E0000094E00000A0E0000001
S214003EF0ACE00000B8E00000C0E00000CCE000004D
S214003F00D8E00000E4E00000ECE00000F8E000008C
S214003F1058E0000060E000000CE1000008B5FDF786
S214003F2019FB08BD2DE9F04784B081468A469046C5
S214003F301D460C9F0D9E04460EE018680F9B0393CB
S214003F400E9B0293019600972B4642460121FFF7EF
S214003F50E9FF044618E00C342068A8B133682A68E4
S214003F60934211DA57F82310FFF7D8FF0028F2D152
S214003F7033680133336063681A7BFE2ADDD0012381
S214003F800E9A137088F8003098F800305BB90F9BD3
S214003F901B7843B9BAF1000F09D001230F9A1370AA
S214003FA088F800304C46204604B0BDE8F087002470
S214003FB0F9E7000070B506460D4608F079FC0446A1
S214003FC0304600F05CFD03E0034800F058FD013485
S214003FD0AC42F9D370BD00BF3CD500002DE9F84FC8
S214003FE0044602213248FFF7E5FF1E212068FFF74E
S214003FF0E1FF6368586800F042FD2E4800F03FFD80
S21400400063681A7BFD2A51D803F10C09D3F808A07F
S214004010504608F04DFC80464FF0FF34002510E077
S2140040202B2000F020FD36E000F01DFD01341AF8CC
S21400403004001F2801D04445F6DB1E4800F01FFD93
S2140040400135AB4619F80560FF2E2FD03046FFF736
S214004050F3FE0746B8F1000F00DD0134202EEFD046
S214004060134E02213046FFF7A5FF1E213046FFF70C
S214004070A1FF114800F003FD1049384608F00EFC79
S21400408000B90F4F39460F4800F0F9FCCB449BF8B7
S2140040900130202BC4D00C4800F0F1FCB8F1000F22
S2140040A0CBDD1AF804301F2BC7D0C0E7BDE8F88F69
S2140040B044E1000054D500001CE10000F8E00000D8
S2140040C018E1000054E0000020E1000038B5054685
S2140040D0002402E0FFF782FF013404EB440305EB03
S2140040E0830055F8233023B1037A002BF2D0013435
S2140040F0F3E738BD10B539B1084612B1FFF76EFFC9
S21400410010BDFFF7E3FFFBE7D0F89C4000E0246813
S214004110002CF5D0A0680028F9D0FFF7D7FFF6E707
S2140041207047704759B10A790AB10020704710B538
S21400413001240C719C30FDF7C6F9204610BD002006
S214004140704700002DE9F04F95B081460591069224
S2140041501C4602931E9E00F1090215460892104660
S21400416008F0A6FB07900023236033600CAA0BA977
S214004170284600F0ACFC002840F0BE800C9808F002
S21400418097FB2060D9F89C30039300231C460493C9
S2140041909A46A0E000242BE0013429E00B9B013B6B
S2140041A053454FD00F68584608F082FB33680344E7
S2140041B00133336001E001333360336809EB0302F7
S2140041C0527A002AF7D00AF1010A019C10E0049BFB
S2140041D0013304934246DDF818804146059D284683
S2140041E0FDF7A5F9474A41462846FDF7A0F90134F0
S2140041F004EB440307EB830557F82330002B33D03A
S2140042000B9B534530DB2B7A002BC5D1D9F8942075
S2140042103368D21A029B1A6014AB03EB8A0353F876
S21400422020BCD5F800804146584608F049FB01906E
S2140042300028DCD1404608F03BFB844669680A7BD0
S214004240FE2AABD0D9F8943030681B1A6546634511
S2140042500DDC059808F02CFB05447B2DB7D92A4ABF
S21400426006990598FDF763F9089B079A28E0FE2A49
S214004270BDD10B9B013B5345B9D10D680994019CF8
S214004280049FDDF81480DDF818B004EB440355F8FD
S21400429023205AB159464046FDF749F9194A59466E
S2140042A04046FDF744F901370134EEE7099C0497D0
S2140042B0079B33600023029A1360D5E70133013A67
S2140042C0002A05DD19780029F8D120211970F5E7B4
S2140042D0039B1B680393039B83B1039B9F68002F7C
S2140042E0F6D009EB04035B7A202B7FF453AF3368D8
S2140042F0013333600134F4E700230493049815B0C7
S214004300BDE8F08F3CD5000024E100002DE9F04721
S21400431086B004460F4616461D46DDF83890DDF892
S2140043203C8000238DF817302B6089F8003088F821
S21400433000302B6852F823101648FFF7EFFD40B9FF
S2140043402B6801332B604FF0010AD4F89C40002004
S21400435003E04FF0000AF8E7246894B1A06800284C
S214004360FAD0CDF80C80CDF80890019500963B4623
S2140043700DF117020021FFF7D5FD9DF81730002B31
S214004380EAD0BAF1000F02D0012388F8003006B058
S214004390BDE8F0872CE10000F0B5A3B0054608465E
S2140043A01AAA19A900F093FB044610B1204623B0C0
S2140043B0F0BD00238DF80B300DF10B0301930DF1CA
S2140043C00A03009303AB1AAA19A92846FFF79EFF13
S2140043D09DF80B3013BB40B3466806F10C0711ABD3
S2140043E0019309AB0093039B1AAA19993846FFF765
S2140043F081FC04460028D9D10495199B059309AB86
S2140044000693039B0793089704A8FFF789FE336873
S21400441004A8984704A8FFF784FEC7E79DF80A207B
S21400442001462846FFF766FEC0E72D24BEE70023B8
S2140044300B601360D0F8AC32B3B3944690F8AC304F
S214004440A3B300B54FF0010E002313E00133B3F51C
S214004450007F0DD20A6801320A60DCF800200132C3
S214004460CCF80020C21892F8AC200A2AEED101330C
S2140044700EF1010ED0F8AC227245E8D805E0DCF863
S21400448000200132CCF800200133B3F5007F08D2BB
S214004490C21892F8AC200A2A0AD0002AEFD10120CE
S2140044A000E001205DF804FB002070470020704704
S2140044B00120F7E770B505460024264600E00134E3
S2140044C005F1AC0008F0F4F9A04207D92B1993F8CF
S2140044D0AC301BB10A2BF2D10136F0E7304670BD86
S2140044E008B50844407A00F0BEFA08BD08B50820B2
S2140044F000F0B9FA08BD10B50446D0F88C200021AB
S214004500093008F0FEF80023C4F89030C4F8943060
S21400451010BD000070B5ADF5447D04460021A491A1
S2140045207C22A5A808F0EDF8A3AB0093A2AB8022EE
S214004530A4A92046FFF706FE012804D0012842DC85
S2140045400DF5447D70BDA4A808F0B2F90546A29901
S214004550431AA39A0A44083222440132A4A801440A
S21400456004E011F8010B02F8010B013B002BF8DC0C
S21400457000231370D4F890600AE0D4F89010204618
S214004580FFF7AEFFD4F890300133C4F89030013610
S214004590A29AA39B1344B342EFDCAD1AD4F894302E
S2140045A02B44C4F89430D4F890302B44C4F89030A0
S2140045B0A4AB9C1804E014F8010B00F054FA013D7B
S2140045C0002DF8DCBCE78022002102A808F099F84C
S2140045D04FF40072002122A808F093F8012500236A
S2140045E000E0013303F544726A4412F8802C3AB1B5
S2140045F0202AF6D15A1C22A941F825200135F0E7D9
S21400460022AA42F82530A4A808F052F9002115E0A5
S214004610013222AB53F82230834209D00B4403F513
S21400462044736B4413F8803C6345F1D0002300E0EC
S214004630012363B102AB03F801C001318D4209DBEF
S21400464001F544736B4413F880CC0022E1E702AB1B
S21400465000225A54D4F890500AE0D4F8901020461D
S214004660FFF73EFFD4F890300133C4F890300135A0
S214004670A29BAB42F1DC04F10903194AA4A919482C
S21400468000F0FDF902A808F013F9A29AA39BD1182E
S21400469008312144013102AB9D18821A0EE015F84C
S2140046A0013B01F8013BD4F890300133C4F8903058
S2140046B0D4F894300133C4F89430013A002AEEDC82
S2140046C000230B70A29C02AB1D19041B04E015F816
S2140046D0010B00F0C8F9013C002CF8DC30E700BF05
S2140046E050E0000034E10000F0B583B004460EE070
S2140046F02046FFF7DFFEC4F8AC0201AA6946204652
S214004700FFF795FE009B2344002283F8AC2004F1BB
S2140047100906304608F0CCF8451C04F1AC073846CC
S21400472008F0C6F8C0F500739D42E1D8421C394631
S214004730781907F0CCFF304608F0BAF80246314642
S214004740384607F0B7FF304608F0B2F820440A2390
S21400475080F8AC300023C4F8AC3203B0F0BD0000E3
S2140047602DE9F84304460D46D0F89060D0F89470D2
S21400477000F1090890F89830012B0AD0012B0ED9C9
S214004780022B00F0C680032B00F0D2800020BDE88C
S214004790F8830A29F2D1002084F89800F7E71B2D49
S2140047A029D00D2D2CD0002384F89830082D2BD03E
S2140047B07F2D68D00D2D00F088800A2D00F08580B2
S2140047C0092D00F08F80D4F88C30013BBB4240F3BB
S2140047D0E280BE42C0F28B8008F806500136C4F86C
S2140047E09060D4F894300133C4F89430284600F032
S2140047F03AF90020CBE7022384F898300020C6E779
S214004800012384F89830D1E7002E01DDBE420CD09B
S214004810002E01DDBE4217DB002E00F0BA80C4F881
S2140048209060C4F894700020B1E7082000F01BF9EF
S214004830202000F018F9082000F015F9013E0023AA
S21400484008F80630013FEAE706F1FF39082000F0D5
S2140048500AF908EB0905A7EB090208EB060128464A
S21400486007F035FF002308F8073029464C4800F0CB
S21400487006F9013F3D4602E0FFF738FE013D4D4593
S214004880FADC4E46CBE7002F01DDBE4201DB0020FE
S2140048907DE708EB0605711CBA1B4144284607F065
S2140048A016FF002308F8073029463E4800F0E7F8D0
S2140048B003E0082000F0D7F8013FB742F9DCD4F84F
S2140048C09430013BC4F89430E1E70D2000F0CBF8BB
S2140048D00A2000F0C8F80023C4F89030C4F89430DA
S2140048E0012054E72046FFF715FE00204FE7701C16
S2140048F008EB0609BA1B4946404407F0E8FE48465E
S21400490000F0BDF802E0FFF7F1FD013FB742FADA2A
S21400491062E75B2D04D1032384F89830002036E745
S214004920002384F8983029462046FFF719FF2EE723
S214004930002384F89830413D032D2ED8DFE805F09B
S21400494002080F1E0121204600F02EF800201EE768
S2140049504FF0FF31204600F027F8002017E7BE4250
S21400496001DB002013E731462046FFF7B9FDD4F8F7
S21400497090300133C4F89030002008E7002E01DCA8
S214004980002004E7013EC4F89060FFF7AFFD00206A
S214004990FDE60020FBE60020F9E60020F7E600BF73
S2140049A040E1000048E1000030B583B005460C4603
S2140049B0FFF780FDB4F1FF3F0FD0012C2DD1D5F8C5
S2140049C0AC32834229D20133C5F8AC320123D5F884
S2140049D0AC42B4B1F3B1002413E0D5F8AC3223B145
S2140049E0013BC5F8AC320123F1E70023EFE70820CE
S2140049F000F039F8202000F036F8082000F033F8F0
S214004A00013405F1090007F053FFA042EFD828460D
S214004A10FFF771FDD5F8AC320BB903B030BD01AA73
S214004A2069462846FFF703FD0028F6D0009C06E0FE
S214004A302B1993F8AC102846FFF792FE0134019B21
S214004A40A342F5D8E9E700B583B00DF107010020D1
S214004A5000F0C1F920B99DF8070003B05DF804FB2B
S214004A604FF0FF30F9E710B50446C1B2002000F061
S214004A709FF908B9204610BD4FF0FF30FBE70FB492
S214004A8000B583B004A951F8040B019101F02AFE89
S214004A90002003B05DF804EB04B0704708B50B4681
S214004AA001F1010C00EB0C0110F80CC0BCF1220F58
S214004AB007D0BCF17B0F04D0BCF15C0F01D0002006
S214004AC004E0D21A184407F002FE012008BD2DE9C2
S214004AD0F84305468846914607F0EAFE0646002457
S214004AE000E001342A192B5D202BFAD0C9F80020EB
S214004AF00123C8F8003030E07B2B14D0D8F8003003
S214004B0003F18043013B621C2A4449F823202227F4
S214004B10012C06D92B1913F8013C202B01D0002BB1
S214004B2049D1013404E07D27F2E70134A64246D994
S214004B3028192B5DBB4209D05C2BF6D132462146A4
S214004B402846FFF7ABFFC0B3013EEEE74378202BC5
S214004B5000D0BBBB222F21D00134A64229D92A1966
S214004B602B5D7B2BC8D0222BC6D05C2B19D0202BDC
S214004B70F2D100231370631CB342EDD2EA18EB5C4B
S214004B80202BE9D0D8F80030072B1FDC49F823206B
S214004B90D8F800300133C8F80030DDE70023037092
S214004BA0DAE7324621462846FFF778FF60B1013E35
S214004BB0D2E7002004E0212002E0212000E02120AE
S214004BC0BDE8F8832120FBE72120F9E71E20F7E760
S214004BD000B583B0064A6B4692E8030083E80300FC
S214004BE01846FDF7F3FF002003B05DF804FB00BF96
S214004BF04CE1000010B582B0074A536F43F0010342
S214004C005367002400948DF804406846FDF72CFF97
S214004C10204602B010BD00BF0040005010B58AB05C
S214004C20EC461D4C0FCCACE80F000FCCACE80F00E8
S214004C3094E803008CE80300184BD3F84C3113F4C7
S214004C40002F10D1154BD3F85041E4B2B4F1FF3F1A
S214004C5013D08DF81940FDF715FC24180FD4FF2C3F
S214004C600EDDFF240CE04FF0FF340D4B1B884FF693
S214004C70FF729342EAD01C46E8E77824E9E700246E
S214004C808DF818400748FCF7F7FB6846FDF74AFB27
S214004C9000200AB010BD00BF54E100000080E00F05
S214004CA00001E00F00F0490210B586B00DF1040CCB
S214004CB0094C0FCCACE80F002368CCF80030252355
S214004CC08DF8053001A8FDF7E3FB6420FDF724FC12
S214004CD0002006B010BD00BF7CE100006FF00403AA
S214004CE008E003F1604202F56142502182F80013A9
S214004CF001335BB23F2B08DC002BF2DA03F00F0126
S214004D00034A0A4450211176F2E70020704700BF9C
S214004D10FCEC00E010B50446FDF786FE024B1C6076
S214004D20FDF786FE002010BD0811002010B5FDF727
S214004D307BFE034B1C68FDF77BFE204610BD00BFC4
S214004D400811002070B50C461546034638B153B11D
S214004D505E6856B12A4621461868B04770BDFFF710
S214004D60E5FF0346F3E72320F8E72320F6E72DE9DF
S214004D70F04182B00E4617461C46054670B18CB10F
S214004D8095B1D5F80880B8F1000F0FD023463A4603
S214004D9031462868C04702B0BDE8F081FFF7C6FF7D
S214004DA00546ECE701ACEBE72320F4E72320F2E727
S214004DB000B583B08DF8071001220DF10701FFF74B
S214004DC0C1FF03B05DF804FB08B50B460146184664
S214004DD0FFF7EEFF08BD08B500230122FFF7C7FF67
S214004DE008BD00000EB410B583B005AB53F8044BF5
S214004DF00193014660B1019B2246084801F082FCFF
S214004E00002809DD002003B0BDE8104003B070475D
S214004E10FFF78CFF0146EEE73720F4E7C94D0000A8
S214004E20C36A03F5805304229A64704710B504469B
S214004E30E36A1B6C13F0400FFAD000231A46A16BEE
S214004E4094F83400FEF72EF900231A46216C94F8E5
S214004E503C00FEF727F994F8543013F0010F0ED1FA
S214004E6094F8543013F0020F11D10021E06AFDF7D8
S214004E702BFF0021206BFDF705F8002010BD002356
S214004E801A46A16C94F84400FEF70CF9E8E70023F4
S214004E901A46216D94F84C00FEF704F9E5E708B5CC
S214004EA0C06AFDF758FF002008BD0000F0B58BB0C3
S214004EB016461C46109D00230693079308930993F5
S214004EC023790BB18DF8183006ABF361637993B193
S214004ED0012304930393634B0293634B01930023D4
S214004EE00093624B0A46294600F0D2F9074620B1E5
S214004EF038460BB0F0BD0223EBE7A3682B63A3692B
S214004F002B64237D85F83C302369AB63237B85F8CF
S214004F103430236AAB64237F85F84430A36A2B655C
S214004F2094F8243085F84C302368EB6201213A204F
S214004F30FCF7A8FF012304222169207BFEF7B2F8C4
S214004F4001230222A169207DFEF7ACF8002333700E
S214004F5085F854300121A068FCF794FF63791BBBE9
S214004F6001214FF4C060FCF78DFF1021A068FDF70B
S214004F7059FB31462068FDF7F9FF3D4B0222C3F886
S214004F80C020227B216942EA0142C3F8D020227D5C
S214004F90A16942EA0142C3F8CC202379032B5FD8EB
S214004FA0DFE803F04916394101214FF48060FCF731
S214004FB069FF0F21A068FDF735FB31462068FDF735
S214004FC0CFFF95F8543043F0040385F85430D4E707
S214004FD095F8543043F0010385F85430002500233B
S214004FE00222216A207FFEF75DF8237F226A43EAC9
S214004FF00243204AC2F8C430FDB9236803F50053C3
S21400500004225A64236803F580539A6405212068B5
S214005010FDF75AFE6CE795F8543043F0020385F826
S21400502054300125E8E795F8543043F0030385F83B
S21400503054300125D3E70025DEE700230422A16AC9
S21400504094F82400FEF72EF80A4A0123C2F8C0306E
S21400505094F82430A16A43EA0143C2F8C830CCE78A
S214005060232745E72D4E0000214E00009F4E0000EE
S21400507000C4035000D40350C26A936C526C1340B1
S21400508013F0040F00D1704710B5044600F064F921
S21400509028B9E36A03F5005304229A6410BDE06A57
S2140050A0FDF752FE0146204600F066F9E36A03F576
S2140050B0005304225A64F1E700207047FEE74FF4DD
S2140050C000534B60002070470020704700B583B047
S2140050D00020019001ABFFF74AFE019810B103B023
S2140050E05DF804FB4FF0FF30F9E710B514460020DA
S2140050F0FFF728FE204610BD08B5044B18680023AD
S21400510002221946806807F005FB08BDA8080020A3
S21400511080F82410704790F824007047F8B50446CD
S2140051200F46154690F82430A3B900260120AE425B
S21400513022D294F82630002BF9D0236839782046FE
S2140051409847C8B901370136F1E723680D21204694
S21400515098470AE000260120AE420DD294F8263089
S214005160002BF9D03B780A2BEFD0236817F8011BE9
S214005170204698470136EFE7F8BD08B5FFF7CEFFA3
S214005180002008BD38B504460568FFF7CFFD844209
S21400519027D095F92830002B08DB03F01F015B09A8
S2140051A001228A406033114941F8232095F92830BE
S2140051B0002B0CDB03F01F015B0901228A40203321
S2140051C00A4941F82320BFF34F8FBFF36F8F0023A8
S2140051D023606360A36023616361EB682846984799
S2140051E038BD0020FFF796FDD3E700BF00E100E0E2
S2140051F070B504460D46FDF71EFCA6699EB1E26931
S2140052002369D35C2B70236901332361226A93429E
S2140052100CD0A369013BA361FDF713FCA3682046ED
S2140052209847304670BDFDF70CFCFAE70023236173
S214005230EFE72DE9F04182B007460E4690461D4640
S21400524000232B6003E001362C6801342C602B68A9
S214005250434505D231463846FFF7CAFF0028F2D14B
S21400526097F827302BB12B6883B1002002B0BDE839
S214005270F08111238DF8073001220DF10701384621
S214005280FFF77BFF012387F82730ECE71B20EDE7CD
S214005290F8B515465268002A4DD006460C461F46FD
S2140052A0AB68002B49D02C220021204607F029FAB3
S2140052B06B68E361AB6823622B7B84F82430AB7B9E
S2140052C084F82530012384F8263084F827302760B8
S2140052D0069B6360079BA360089BE36095F900301C
S2140052E084F828303460164B7360164BB360164B48
S2140052F03361164B7361164BF36095F90030002B43
S21400530008DB03F01F015B0901228A406033114964
S21400531041F8232095F90030002B07DB03F01F012E
S2140053205B0901228A400B4941F823203046FFF7EB
S214005330F1FC0020F8BD2220FCE72120FAE700BFA0
S2140053407B5100003352000011510000175100003D
S2140053508551000000E100E010B50446FDF76BFB48
S214005360A269236A9A4203D3FDF76BFB002010BDA7
S214005370FDF767FB0120FAE730B583B004460D461B
S21400538000E000BFFDF757FB94F825301BB1132D46
S21400539018D0112D1CD0E2696369D55463690133B6
S2140053A06361A2690132A261226A934216D0FDF7B8
S2140053B048FB94F825301BB1A269236A9A4210D0A4
S2140053C003B030BD002384F82630FDF73AFBF7E73C
S2140053D0012384F82630FDF734FBF1E700236361F0
S2140053E0E5E713238DF8073001220DF1070120466B
S2140053F0FFF794FE002384F82730E1E770B4BFF38C
S2140054005F8F2C4B5A6A22F480325A62D3F894206B
S21400541022F00102C3F89420BFF34F8FBFF36F8FC3
S214005420254B2648834242D020F01F012039214CCC
S214005430D4F8C05085F0A002D2B26A40C4F8C020AA
S214005440B1F1005F0CD31E4D2A6841F00101C4F88B
S21400545098201C4EC4F89C60C4F8A01001322A6044
S214005460834210D01F3323F01F0343F00303144876
S21400547002681049C1F89820C1F89C30124BC1F858
S214005480A03001320260BFF35F8F0A4B0522C3F8DB
S21400549094205A6A42F480325A62BFF34F8FBFF3A9
S2140054A06F8FBFF34F8FBFF36F8F70BC70474FF097
S2140054B08041BCE700ED00E00C0900200C0900204C
S2140054C00C11002003000020E1FFFF3FBFF34F8FC9
S2140054D00549CA6802F4E062044B1343CB60BFF38D
S2140054E04F8F00BFFDE700BF00ED00E00400FA05A7
S2140054F008B5FFF7EBFF08BD08B5FBF729FBFBF780
S21400550057FBFBF77AFBFBF75FFBFBF767FB08BD78
S21400551008B5FBF767FBFBF766FBFBF768FBFBF7DB
S21400552067FB08BD10B50446FBF78AFF0E4BA3FBCE
S2140055300023B0F57A7F12D39B090C4AB2FBF3F234
S2140055400B4B98420BD84FF47A7304FB03F3B3FB70
S214005550F2F30848A0FB03204008022B00D810BD39
S21400556000F00EF8FBE700BFD34D621040420F007C
S214005570E7CD9A3BABAAAAAA0000000000000000F4
S214005580013800D0FCE77047704720B108B50A68BC
S2140055904968904708BD70470146002007E000EBC9
S2140055A08000531C0B60137803EB400030380A6809
S2140055B01378303BDBB2092BF1D970472DE9F04F59
S2140055C083B005460E4693461F46DDF830A00D9C78
S2140055D0DDF838900F9B13F0030F19D1A046019207
S2140055E0C84509D202F1010B3B4631462020A847A8
S2140055F008F101085A46F3E7DDF804B008E0013C7C
S21400560002F101083B4631461AF80400A847424614
S214005610002CF4D10F9B13F0020F03D1104603B0F9
S214005620BDE8F08FA2EB0B034B45F7D2541C3B466C
S21400563031462020A8472246F4E72DE9F04385B0FE
S2140056400C9D0D9C9DF83890DDF83C80DDF840E020
S214005650119F129E16F0020F21D17FB116F0010F96
S2140056600CD0B9F1000F02D116F00C0F06D0013F96
S21400567004E04FF0300C05F804C00134744501D244
S2140056801F2CF6D916F0010F09D0BC4207D21F2CEA
S21400569005D84FF0300C05F804C00134F2E716F0D8
S2140056A0100F17D016F4806F04D11CB1744524D0A7
S2140056B0BC4222D0B8F1100F2BD0B8F1100F33D067
S2140056C0B8F1020F3BD01F2C04D84FF0300C05F871
S2140056D004C001341F2C07D8B9F1000F37D04FF0A3
S2140056E02D0C05F804C0013403960297019400952A
S2140056F0FFF764FF05B0BDE8F083B4F1010C06D0F7
S214005700B8F1100F01D06446D4E7023CD2E76446F5
S214005710D0E716F0200FD0D11F2CCED84FF0780C43
S21400572005F804C00134CEE716F0200FC8D01F2CB1
S214005730C6D84FF0580C05F804C00134C3E71F2C38
S214005740C1D84FF0620C05F804C00134BBE716F070
S214005750040F05D04FF02B0C05F804C00134C3E746
S21400576016F0080FC0D04FF0200C05F804C0013426
S214005770BAE7F0B591B0169C189D1B9E0CB926F0A2
S214005780100616F4806E16D064B34FF0000E12E0CA
S2140057900CF1300C5FFA8CFC0EF101070EF1400E96
S2140057A0EE440EF820CCB4FBF5FCAC421BD31F2F06
S2140057B019D8BE466446B4FBF5FC05FB1C4C5FFAE4
S2140057C08CFCBCF1090FE3D916F0200F08D0412756
S2140057D0BC445FFA8CFCACF10A0C5FFA8CFCDBE78D
S2140057E06127F5E7274606961A9C0594199C0494AB
S2140057F003959DF85C400294019708AC0094FFF76F
S2140058001CFF11B0F0BD2DE9F04F95B009900A913C
S2140058100B929B461E9D1F9E229FDDF88C80DDF816
S21400582098A055EA060301D12AF0100A1AF48064FB
S2140058301FD055EA060330D000241AE003F13002E8
S214005840D2B204F1010904F150030DEB030404F88D
S214005850202C3A4643462846314606F063FDBD42B4
S21400586076EB08031BD3B9F11F0F18D84C46054634
S2140058700E463A4643462846314606F053FDD3B216
S214005880092BDBD91AF0200F05D041221A44D2B2D8
S2140058900A3AD2B2D5E76122F8E74FF00009CDF810
S2140058A018A0259B0593249B049303979DF88030AE
S2140058B00293CDF804900CAB00935B460B9A0A99C2
